{
  "_format": "hh-sol-artifact-1",
  "contractName": "NewToken",
  "sourceName": "contracts/NewToken.sol",
  "abi": [
    {
      "inputs": [
        {
          "internalType": "string",
          "name": "_name",
          "type": "string"
        },
        {
          "internalType": "string",
          "name": "_symbol",
          "type": "string"
        },
        {
          "internalType": "uint256",
          "name": "_amount",
          "type": "uint256"
        }
      ],
      "stateMutability": "nonpayable",
      "type": "constructor"
    },
    {
      "anonymous": false,
      "inputs": [
        {
          "indexed": false,
          "internalType": "address",
          "name": "owner",
          "type": "address"
        },
        {
          "indexed": false,
          "internalType": "address",
          "name": "spender",
          "type": "address"
        },
        {
          "indexed": false,
          "internalType": "uint256",
          "name": "value",
          "type": "uint256"
        }
      ],
      "name": "Approval",
      "type": "event"
    },
    {
      "anonymous": false,
      "inputs": [
        {
          "indexed": false,
          "internalType": "address",
          "name": "from",
          "type": "address"
        },
        {
          "indexed": false,
          "internalType": "address",
          "name": "to",
          "type": "address"
        },
        {
          "indexed": false,
          "internalType": "uint256",
          "name": "value",
          "type": "uint256"
        }
      ],
      "name": "Transfer",
      "type": "event"
    },
    {
      "inputs": [
        {
          "internalType": "address",
          "name": "",
          "type": "address"
        }
      ],
      "name": "allowance",
      "outputs": [
        {
          "internalType": "uint256",
          "name": "",
          "type": "uint256"
        }
      ],
      "stateMutability": "view",
      "type": "function"
    },
    {
      "inputs": [
        {
          "internalType": "address",
          "name": "whitelist",
          "type": "address"
        }
      ],
      "name": "approve",
      "outputs": [
        {
          "internalType": "bool",
          "name": "",
          "type": "bool"
        }
      ],
      "stateMutability": "nonpayable",
      "type": "function"
    },
    {
      "inputs": [
        {
          "internalType": "address",
          "name": "",
          "type": "address"
        }
      ],
      "name": "balance",
      "outputs": [
        {
          "internalType": "uint256",
          "name": "",
          "type": "uint256"
        }
      ],
      "stateMutability": "view",
      "type": "function"
    },
    {
      "inputs": [
        {
          "internalType": "address",
          "name": "account",
          "type": "address"
        }
      ],
      "name": "balanceOf",
      "outputs": [
        {
          "internalType": "uint256",
          "name": "",
          "type": "uint256"
        }
      ],
      "stateMutability": "view",
      "type": "function"
    },
    {
      "inputs": [
        {
          "internalType": "uint256",
          "name": "amount",
          "type": "uint256"
        }
      ],
      "name": "burn",
      "outputs": [],
      "stateMutability": "nonpayable",
      "type": "function"
    },
    {
      "inputs": [
        {
          "internalType": "address",
          "name": "spender",
          "type": "address"
        },
        {
          "internalType": "uint256",
          "name": "amount",
          "type": "uint256"
        }
      ],
      "name": "burnFrom",
      "outputs": [
        {
          "internalType": "bool",
          "name": "",
          "type": "bool"
        }
      ],
      "stateMutability": "nonpayable",
      "type": "function"
    },
    {
      "inputs": [],
      "name": "decimals",
      "outputs": [
        {
          "internalType": "uint8",
          "name": "",
          "type": "uint8"
        }
      ],
      "stateMutability": "view",
      "type": "function"
    },
    {
      "inputs": [],
      "name": "name",
      "outputs": [
        {
          "internalType": "string",
          "name": "",
          "type": "string"
        }
      ],
      "stateMutability": "view",
      "type": "function"
    },
    {
      "inputs": [],
      "name": "symbol",
      "outputs": [
        {
          "internalType": "string",
          "name": "",
          "type": "string"
        }
      ],
      "stateMutability": "view",
      "type": "function"
    },
    {
      "inputs": [],
      "name": "totalSupply",
      "outputs": [
        {
          "internalType": "uint256",
          "name": "",
          "type": "uint256"
        }
      ],
      "stateMutability": "view",
      "type": "function"
    },
    {
      "inputs": [
        {
          "internalType": "address",
          "name": "to",
          "type": "address"
        },
        {
          "internalType": "uint256",
          "name": "amount",
          "type": "uint256"
        }
      ],
      "name": "transfer",
      "outputs": [
        {
          "internalType": "bool",
          "name": "",
          "type": "bool"
        }
      ],
      "stateMutability": "nonpayable",
      "type": "function"
    },
    {
      "inputs": [
        {
          "internalType": "address",
          "name": "spender",
          "type": "address"
        },
        {
          "internalType": "address",
          "name": "to",
          "type": "address"
        },
        {
          "internalType": "uint256",
          "name": "endDate",
          "type": "uint256"
        },
        {
          "internalType": "uint256",
          "name": "amount",
          "type": "uint256"
        }
      ],
      "name": "transferFrom",
      "outputs": [
        {
          "internalType": "bool",
          "name": "",
          "type": "bool"
        }
      ],
      "stateMutability": "nonpayable",
      "type": "function"
    }
  ],
  "bytecode": "0x60806040526012600260006101000a81548160ff021916908360ff1602179055503480156200002d57600080fd5b5060405162001b3238038062001b328339818101604052810190620000539190620003d6565b33600460006101000a81548173ffffffffffffffffffffffffffffffffffffffff021916908373ffffffffffffffffffffffffffffffffffffffff1602179055508260009081620000a59190620006b1565b508160019081620000b79190620006b1565b50620000f6600260009054906101000a900460ff1660ff16600a620000dd91906200091b565b82620000ea91906200096c565b620000ff60201b60201c565b50505062000a75565b600460009054906101000a900473ffffffffffffffffffffffffffffffffffffffff1673ffffffffffffffffffffffffffffffffffffffff163373ffffffffffffffffffffffffffffffffffffffff161462000192576040517f08c379a0000000000000000000000000000000000000000000000000000000008152600401620001899062000a18565b60405180910390fd5b80600560003373ffffffffffffffffffffffffffffffffffffffff1673ffffffffffffffffffffffffffffffffffffffff1681526020019081526020016000206000828254620001e3919062000a3a565b925050819055508060036000828254620001fe919062000a3a565b9250508190555050565b6000604051905090565b600080fd5b600080fd5b600080fd5b600080fd5b6000601f19601f8301169050919050565b7f4e487b7100000000000000000000000000000000000000000000000000000000600052604160045260246000fd5b620002718262000226565b810181811067ffffffffffffffff8211171562000293576200029262000237565b5b80604052505050565b6000620002a862000208565b9050620002b6828262000266565b919050565b600067ffffffffffffffff821115620002d957620002d862000237565b5b620002e48262000226565b9050602081019050919050565b60005b8381101562000311578082015181840152602081019050620002f4565b60008484015250505050565b6000620003346200032e84620002bb565b6200029c565b90508281526020810184848401111562000353576200035262000221565b5b62000360848285620002f1565b509392505050565b600082601f83011262000380576200037f6200021c565b5b8151620003928482602086016200031d565b91505092915050565b6000819050919050565b620003b0816200039b565b8114620003bc57600080fd5b50565b600081519050620003d081620003a5565b92915050565b600080600060608486031215620003f257620003f162000212565b5b600084015167ffffffffffffffff81111562000413576200041262000217565b5b620004218682870162000368565b935050602084015167ffffffffffffffff81111562000445576200044462000217565b5b620004538682870162000368565b92505060406200046686828701620003bf565b9150509250925092565b600081519050919050565b7f4e487b7100000000000000000000000000000000000000000000000000000000600052602260045260246000fd5b60006002820490506001821680620004c357607f821691505b602082108103620004d957620004d86200047b565b5b50919050565b60008190508160005260206000209050919050565b60006020601f8301049050919050565b600082821b905092915050565b600060088302620005437fffffffffffffffffffffffffffffffffffffffffffffffffffffffffffffffff8262000504565b6200054f868362000504565b95508019841693508086168417925050509392505050565b6000819050919050565b6000620005926200058c62000586846200039b565b62000567565b6200039b565b9050919050565b6000819050919050565b620005ae8362000571565b620005c6620005bd8262000599565b84845462000511565b825550505050565b600090565b620005dd620005ce565b620005ea818484620005a3565b505050565b5b81811015620006125762000606600082620005d3565b600181019050620005f0565b5050565b601f82111562000661576200062b81620004df565b6200063684620004f4565b8101602085101562000646578190505b6200065e6200065585620004f4565b830182620005ef565b50505b505050565b600082821c905092915050565b6000620006866000198460080262000666565b1980831691505092915050565b6000620006a1838362000673565b9150826002028217905092915050565b620006bc8262000470565b67ffffffffffffffff811115620006d857620006d762000237565b5b620006e48254620004aa565b620006f182828562000616565b600060209050601f83116001811462000729576000841562000714578287015190505b62000720858262000693565b86555062000790565b601f1984166200073986620004df565b60005b8281101562000763578489015182556001820191506020850194506020810190506200073c565b868310156200078357848901516200077f601f89168262000673565b8355505b6001600288020188555050505b505050505050565b7f4e487b7100000000000000000000000000000000000000000000000000000000600052601160045260246000fd5b60008160011c9050919050565b6000808291508390505b60018511156200082657808604811115620007fe57620007fd62000798565b5b60018516156200080e5780820291505b80810290506200081e85620007c7565b9450620007de565b94509492505050565b60008262000841576001905062000914565b8162000851576000905062000914565b81600181146200086a57600281146200087557620008ab565b600191505062000914565b60ff8411156200088a576200088962000798565b5b8360020a915084821115620008a457620008a362000798565b5b5062000914565b5060208310610133831016604e8410600b8410161715620008e55782820a905083811115620008df57620008de62000798565b5b62000914565b620008f48484846001620007d4565b925090508184048111156200090e576200090d62000798565b5b81810290505b9392505050565b600062000928826200039b565b915062000935836200039b565b9250620009647fffffffffffffffffffffffffffffffffffffffffffffffffffffffffffffffff84846200082f565b905092915050565b600062000979826200039b565b915062000986836200039b565b925082820262000996816200039b565b91508282048414831517620009b057620009af62000798565b5b5092915050565b600082825260208201905092915050565b7f596f7520617265206e6f742061646d696e000000000000000000000000000000600082015250565b600062000a00601183620009b7565b915062000a0d82620009c8565b602082019050919050565b6000602082019050818103600083015262000a3381620009f1565b9050919050565b600062000a47826200039b565b915062000a54836200039b565b925082820190508082111562000a6f5762000a6e62000798565b5b92915050565b6110ad8062000a856000396000f3fe608060405234801561001057600080fd5b50600436106100b45760003560e01c806379cc67901161007157806379cc67901461018f57806395d89b41146101bf578063a9059cbb146101dd578063daea85c51461020d578063e3d670d71461023d578063fe99049a1461026d576100b4565b806306fdde03146100b957806318160ddd146100d7578063313ce567146100f55780633e5beab91461011357806342966c681461014357806370a082311461015f575b600080fd5b6100c161029d565b6040516100ce9190610b6d565b60405180910390f35b6100df61032b565b6040516100ec9190610ba8565b60405180910390f35b6100fd610331565b60405161010a9190610bdf565b60405180910390f35b61012d60048036038101906101289190610c5d565b610344565b60405161013a9190610ba8565b60405180910390f35b61015d60048036038101906101589190610cb6565b61035c565b005b61017960048036038101906101749190610c5d565b61045e565b6040516101869190610ba8565b60405180910390f35b6101a960048036038101906101a49190610ce3565b6104a7565b6040516101b69190610d3e565b60405180910390f35b6101c7610599565b6040516101d49190610b6d565b60405180910390f35b6101f760048036038101906101f29190610ce3565b610627565b6040516102049190610d3e565b60405180910390f35b61022760048036038101906102229190610c5d565b6107aa565b6040516102349190610d3e565b60405180910390f35b61025760048036038101906102529190610c5d565b6108c6565b6040516102649190610ba8565b60405180910390f35b61028760048036038101906102829190610d59565b6108de565b6040516102949190610d3e565b60405180910390f35b600080546102aa90610def565b80601f01602080910402602001604051908101604052809291908181526020018280546102d690610def565b80156103235780601f106102f857610100808354040283529160200191610323565b820191906000526020600020905b81548152906001019060200180831161030657829003601f168201915b505050505081565b60035481565b600260009054906101000a900460ff1681565b60066020528060005260406000206000915090505481565b600460009054906101000a900473ffffffffffffffffffffffffffffffffffffffff1673ffffffffffffffffffffffffffffffffffffffff163373ffffffffffffffffffffffffffffffffffffffff16146103ec576040517f08c379a00000000000000000000000000000000000000000000000000000000081526004016103e390610e6c565b60405180910390fd5b80600560003373ffffffffffffffffffffffffffffffffffffffff1673ffffffffffffffffffffffffffffffffffffffff168152602001908152602001600020600082825461043b9190610ebb565b9250508190555080600360008282546104549190610ebb565b9250508190555050565b6000600560008373ffffffffffffffffffffffffffffffffffffffff1673ffffffffffffffffffffffffffffffffffffffff168152602001908152602001600020549050919050565b6000600460009054906101000a900473ffffffffffffffffffffffffffffffffffffffff1673ffffffffffffffffffffffffffffffffffffffff163373ffffffffffffffffffffffffffffffffffffffff1614610539576040517f08c379a000000000000000000000000000000000000000000000000000000000815260040161053090610e6c565b60405180910390fd5b81600560008573ffffffffffffffffffffffffffffffffffffffff1673ffffffffffffffffffffffffffffffffffffffff16815260200190815260200160002060008282546105889190610ebb565b925050819055506001905092915050565b600180546105a690610def565b80601f01602080910402602001604051908101604052809291908181526020018280546105d290610def565b801561061f5780601f106105f45761010080835404028352916020019161061f565b820191906000526020600020905b81548152906001019060200180831161060257829003601f168201915b505050505081565b6000600460009054906101000a900473ffffffffffffffffffffffffffffffffffffffff1673ffffffffffffffffffffffffffffffffffffffff163373ffffffffffffffffffffffffffffffffffffffff16146106b9576040517f08c379a00000000000000000000000000000000000000000000000000000000081526004016106b090610e6c565b60405180910390fd5b81600560003373ffffffffffffffffffffffffffffffffffffffff1673ffffffffffffffffffffffffffffffffffffffff16815260200190815260200160002060008282546107089190610ebb565b9250508190555081600560008573ffffffffffffffffffffffffffffffffffffffff1673ffffffffffffffffffffffffffffffffffffffff168152602001908152602001600020600082825461075e9190610eef565b925050819055507fddf252ad1be2c89b69c2b068fc378daa952ba7f163c4a11628f55a4df523b3ef33848460405161079893929190610f32565b60405180910390a16001905092915050565b6000600460009054906101000a900473ffffffffffffffffffffffffffffffffffffffff1673ffffffffffffffffffffffffffffffffffffffff163373ffffffffffffffffffffffffffffffffffffffff161461083c576040517f08c379a000000000000000000000000000000000000000000000000000000000815260040161083390610e6c565b60405180910390fd5b6001600660008473ffffffffffffffffffffffffffffffffffffffff1673ffffffffffffffffffffffffffffffffffffffff168152602001908152602001600020819055507f8c5be1e5ebec7d5bd14f71427d1e84f3dd0314c0f7b2291e5b200ac8c7c3b925338360016040516108b593929190610fae565b60405180910390a160019050919050565b60056020528060005260406000206000915090505481565b600042831115610a1c576001600660008673ffffffffffffffffffffffffffffffffffffffff1673ffffffffffffffffffffffffffffffffffffffff16815260200190815260200160002054036109e05781600560008773ffffffffffffffffffffffffffffffffffffffff1673ffffffffffffffffffffffffffffffffffffffff168152602001908152602001600020600082825461097e9190610ebb565b9250508190555081600560008673ffffffffffffffffffffffffffffffffffffffff1673ffffffffffffffffffffffffffffffffffffffff16815260200190815260200160002060008282546109d49190610eef565b92505081905550610a1b565b6040517f08c379a0000000000000000000000000000000000000000000000000000000008152600401610a1290611057565b60405180910390fd5b5b42831015610ad15781600560008773ffffffffffffffffffffffffffffffffffffffff1673ffffffffffffffffffffffffffffffffffffffff1681526020019081526020016000206000828254610a739190610ebb565b9250508190555081600560008673ffffffffffffffffffffffffffffffffffffffff1673ffffffffffffffffffffffffffffffffffffffff1681526020019081526020016000206000828254610ac99190610eef565b925050819055505b60019050949350505050565b600081519050919050565b600082825260208201905092915050565b60005b83811015610b17578082015181840152602081019050610afc565b60008484015250505050565b6000601f19601f8301169050919050565b6000610b3f82610add565b610b498185610ae8565b9350610b59818560208601610af9565b610b6281610b23565b840191505092915050565b60006020820190508181036000830152610b878184610b34565b905092915050565b6000819050919050565b610ba281610b8f565b82525050565b6000602082019050610bbd6000830184610b99565b92915050565b600060ff82169050919050565b610bd981610bc3565b82525050565b6000602082019050610bf46000830184610bd0565b92915050565b600080fd5b600073ffffffffffffffffffffffffffffffffffffffff82169050919050565b6000610c2a82610bff565b9050919050565b610c3a81610c1f565b8114610c4557600080fd5b50565b600081359050610c5781610c31565b92915050565b600060208284031215610c7357610c72610bfa565b5b6000610c8184828501610c48565b91505092915050565b610c9381610b8f565b8114610c9e57600080fd5b50565b600081359050610cb081610c8a565b92915050565b600060208284031215610ccc57610ccb610bfa565b5b6000610cda84828501610ca1565b91505092915050565b60008060408385031215610cfa57610cf9610bfa565b5b6000610d0885828601610c48565b9250506020610d1985828601610ca1565b9150509250929050565b60008115159050919050565b610d3881610d23565b82525050565b6000602082019050610d536000830184610d2f565b92915050565b60008060008060808587031215610d7357610d72610bfa565b5b6000610d8187828801610c48565b9450506020610d9287828801610c48565b9350506040610da387828801610ca1565b9250506060610db487828801610ca1565b91505092959194509250565b7f4e487b7100000000000000000000000000000000000000000000000000000000600052602260045260246000fd5b60006002820490506001821680610e0757607f821691505b602082108103610e1a57610e19610dc0565b5b50919050565b7f596f7520617265206e6f742061646d696e000000000000000000000000000000600082015250565b6000610e56601183610ae8565b9150610e6182610e20565b602082019050919050565b60006020820190508181036000830152610e8581610e49565b9050919050565b7f4e487b7100000000000000000000000000000000000000000000000000000000600052601160045260246000fd5b6000610ec682610b8f565b9150610ed183610b8f565b9250828203905081811115610ee957610ee8610e8c565b5b92915050565b6000610efa82610b8f565b9150610f0583610b8f565b9250828201905080821115610f1d57610f1c610e8c565b5b92915050565b610f2c81610c1f565b82525050565b6000606082019050610f476000830186610f23565b610f546020830185610f23565b610f616040830184610b99565b949350505050565b6000819050919050565b6000819050919050565b6000610f98610f93610f8e84610f69565b610f73565b610b8f565b9050919050565b610fa881610f7d565b82525050565b6000606082019050610fc36000830186610f23565b610fd06020830185610f23565b610fdd6040830184610f9f565b949350505050565b7f596f75206861766520746f2073656e642077686974656c69737465642061646460008201527f7265737300000000000000000000000000000000000000000000000000000000602082015250565b6000611041602483610ae8565b915061104c82610fe5565b604082019050919050565b6000602082019050818103600083015261107081611034565b905091905056fea2646970667358221220d4cc0e97b3103634da04485a49870bdbcf7535de5494b59a776b6a39f6af049864736f6c63430008140033",
  "linkReferences": {},
  "deployedLinkReferences": {}
}