{
  "_format": "hh-sol-artifact-1",
  "contractName": "Prescription",
  "sourceName": "contracts/Test.sol",
  "abi": [
    {
      "anonymous": false,
      "inputs": [
        {
          "indexed": false,
          "internalType": "string",
          "name": "prescriptionHash",
          "type": "string"
        },
        {
          "indexed": false,
          "internalType": "uint256",
          "name": "startDate",
          "type": "uint256"
        },
        {
          "indexed": false,
          "internalType": "uint256",
          "name": "endDate",
          "type": "uint256"
        },
        {
          "indexed": false,
          "internalType": "enum Prescription.PrescriptionStatus",
          "name": "status",
          "type": "uint8"
        }
      ],
      "name": "LogRegisterPrescription",
      "type": "event"
    },
    {
      "anonymous": false,
      "inputs": [
        {
          "indexed": false,
          "internalType": "string",
          "name": "prescriptionHash",
          "type": "string"
        }
      ],
      "name": "LogUsePrescription",
      "type": "event"
    },
    {
      "inputs": [
        {
          "internalType": "string",
          "name": "prescriptionHash",
          "type": "string"
        },
        {
          "internalType": "uint256",
          "name": "startDate",
          "type": "uint256"
        },
        {
          "internalType": "uint256",
          "name": "endDate",
          "type": "uint256"
        }
      ],
      "name": "RegisterPrescription",
      "outputs": [],
      "stateMutability": "nonpayable",
      "type": "function"
    },
    {
      "inputs": [
        {
          "internalType": "string",
          "name": "prescriptionHash",
          "type": "string"
        }
      ],
      "name": "UsePrescription",
      "outputs": [],
      "stateMutability": "nonpayable",
      "type": "function"
    },
    {
      "inputs": [
        {
          "internalType": "string",
          "name": "prescriptionHash",
          "type": "string"
        }
      ],
      "name": "getPrescriptionInfo",
      "outputs": [
        {
          "components": [
            {
              "internalType": "uint256",
              "name": "startDate",
              "type": "uint256"
            },
            {
              "internalType": "uint256",
              "name": "endDate",
              "type": "uint256"
            },
            {
              "internalType": "enum Prescription.PrescriptionStatus",
              "name": "status",
              "type": "uint8"
            }
          ],
          "internalType": "struct Prescription.PrescriptionInfo",
          "name": "",
          "type": "tuple"
        }
      ],
      "stateMutability": "view",
      "type": "function"
    }
  ],
  "bytecode": "0x608060405234801561001057600080fd5b50610bf9806100206000396000f3fe608060405234801561001057600080fd5b50600436106100415760003560e01c80630b960e22146100465780630bb26a2a14610062578063371cda7f14610092575b600080fd5b610060600480360381019061005b91906106a8565b6100ae565b005b61007c60048036038101906100779190610717565b610219565b6040516100899190610828565b60405180910390f35b6100ac60048036038101906100a79190610717565b6102a0565b005b600060028111156100c2576100c161076f565b5b6000846040516100d291906108b4565b908152602001604051809103902060020160009054906101000a900460ff1660028111156101035761010261076f565b5b14610143576040517f08c379a000000000000000000000000000000000000000000000000000000000815260040161013a9061094e565b60405180910390fd5b60405180606001604052808381526020018281526020016001600281111561016e5761016d61076f565b5b81525060008460405161018191906108b4565b9081526020016040518091039020600082015181600001556020820151816001015560408201518160020160006101000a81548160ff021916908360028111156101ce576101cd61076f565b5b02179055509050507fd0347bf2f5d81c6317e62bbc980218cd6095b8dc75c17c51c2e3f6f77020cba2838383600160405161020c94939291906109c5565b60405180910390a1505050565b6102216104e5565b60008260405161023191906108b4565b908152602001604051809103902060405180606001604052908160008201548152602001600182015481526020016002820160009054906101000a900460ff1660028111156102835761028261076f565b5b60028111156102955761029461076f565b5b815250509050919050565b6002808111156102b3576102b261076f565b5b6000826040516102c391906108b4565b908152602001604051809103902060020160009054906101000a900460ff1660028111156102f4576102f361076f565b5b03610334576040517f08c379a000000000000000000000000000000000000000000000000000000000815260040161032b90610a83565b60405180910390fd5b600160028111156103485761034761076f565b5b60008260405161035891906108b4565b908152602001604051809103902060020160009054906101000a900460ff1660028111156103895761038861076f565b5b146103c9576040517f08c379a00000000000000000000000000000000000000000000000000000000081526004016103c090610aef565b60405180910390fd5b60011515426000836040516103de91906108b4565b9081526020016040518091039020600001541115801561041f575060008260405161040991906108b4565b9081526020016040518091039020600101544211155b151514610461576040517f08c379a000000000000000000000000000000000000000000000000000000000815260040161045890610b81565b60405180910390fd5b600260008260405161047391906108b4565b908152602001604051809103902060020160006101000a81548160ff021916908360028111156104a6576104a561076f565b5b02179055507fb25027998599dd31a21b099d9046d27ff505447f92b0f959455790f23c5ad8e9816040516104da9190610ba1565b60405180910390a150565b60405180606001604052806000815260200160008152602001600060028111156105125761051161076f565b5b81525090565b6000604051905090565b600080fd5b600080fd5b600080fd5b600080fd5b6000601f19601f8301169050919050565b7f4e487b7100000000000000000000000000000000000000000000000000000000600052604160045260246000fd5b61057f82610536565b810181811067ffffffffffffffff8211171561059e5761059d610547565b5b80604052505050565b60006105b1610518565b90506105bd8282610576565b919050565b600067ffffffffffffffff8211156105dd576105dc610547565b5b6105e682610536565b9050602081019050919050565b82818337600083830152505050565b6000610615610610846105c2565b6105a7565b90508281526020810184848401111561063157610630610531565b5b61063c8482856105f3565b509392505050565b600082601f8301126106595761065861052c565b5b8135610669848260208601610602565b91505092915050565b6000819050919050565b61068581610672565b811461069057600080fd5b50565b6000813590506106a28161067c565b92915050565b6000806000606084860312156106c1576106c0610522565b5b600084013567ffffffffffffffff8111156106df576106de610527565b5b6106eb86828701610644565b93505060206106fc86828701610693565b925050604061070d86828701610693565b9150509250925092565b60006020828403121561072d5761072c610522565b5b600082013567ffffffffffffffff81111561074b5761074a610527565b5b61075784828501610644565b91505092915050565b61076981610672565b82525050565b7f4e487b7100000000000000000000000000000000000000000000000000000000600052602160045260246000fd5b600381106107af576107ae61076f565b5b50565b60008190506107c08261079e565b919050565b60006107d0826107b2565b9050919050565b6107e0816107c5565b82525050565b6060820160008201516107fc6000850182610760565b50602082015161080f6020850182610760565b50604082015161082260408501826107d7565b50505050565b600060608201905061083d60008301846107e6565b92915050565b600081519050919050565b600081905092915050565b60005b8381101561087757808201518184015260208101905061085c565b60008484015250505050565b600061088e82610843565b610898818561084e565b93506108a8818560208601610859565b80840191505092915050565b60006108c08284610883565b915081905092915050565b600082825260208201905092915050565b7f596f7520616c726561647920726567697374657265642074686973207072657360008201527f6372697074696f6e000000000000000000000000000000000000000000000000602082015250565b60006109386028836108cb565b9150610943826108dc565b604082019050919050565b600060208201905081810360008301526109678161092b565b9050919050565b600061097982610843565b61098381856108cb565b9350610993818560208601610859565b61099c81610536565b840191505092915050565b6109b081610672565b82525050565b6109bf816107c5565b82525050565b600060808201905081810360008301526109df818761096e565b90506109ee60208301866109a7565b6109fb60408301856109a7565b610a0860608301846109b6565b95945050505050565b7f596f7520616c726561647920757365642074686973207072657363726970746960008201527f6f6e000000000000000000000000000000000000000000000000000000000000602082015250565b6000610a6d6022836108cb565b9150610a7882610a11565b604082019050919050565b60006020820190508181036000830152610a9c81610a60565b9050919050565b7f596f75206d75737420726567697374657220707265736372697074696f6e0000600082015250565b6000610ad9601e836108cb565b9150610ae482610aa3565b602082019050919050565b60006020820190508181036000830152610b0881610acc565b9050919050565b7f596f752063616e2774207573652065787069726564207072657363726970746960008201527f6f6e000000000000000000000000000000000000000000000000000000000000602082015250565b6000610b6b6022836108cb565b9150610b7682610b0f565b604082019050919050565b60006020820190508181036000830152610b9a81610b5e565b9050919050565b60006020820190508181036000830152610bbb818461096e565b90509291505056fea264697066735822122050f87c77d90039a1e6b6c3b45252c3e29711b75ae7743f4483c1b48aec16d23764736f6c63430008140033",
  "linkReferences": {},
  "deployedLinkReferences": {}
}